:1000000069C2000083C2000081C200007FC20000FC
:100010007DC200007BC2000079C2000077C20000F0
:1000200075C2000073C2000071C200000C94091474
:100030000C94BA146BC2000069C2000067C20000D1
:1000400065C2000063C2000061C200005FC2000020
:100050005DC200005BC2000059C2000057C2000030
:1000600055C2000053C2000051C200004FC2000040
:100070004DC200004A033500330033003000390020
:100080006600610039002D00350037006200350040
:100090002D0034003300330032002D0061003400A5
:1000A000650032002D003500350062006100390026
:1000B00035003900320061003200360037000000A0
:1000C0001A03470061006D00650070006100640064
:1000D00042006C006F0063006B00000008036E00BC
:1000E0002F00610000000403090409025F000301FE
:1000F0000080FA080B00020202010009040000015E
:100100000202010005240010010424020605240651
:100110000001070582030800FF09040100020A002C
:100120000000070504021000050705830210000502
:10013000090402000103000000092111010001224D
:1001400074000705810308000509025F0003010030
:1001500080FA080B000202020100090400000102FB
:1001600002010005240010010424020605240600F3
:1001700001070582030800FF09040100020A0000CC
:100180000007050402100005070583021000050999
:100190000402000103000000092111010001227482
:1001A000000705810308000509025F0003010080C4
:1001B000FA080B0002020201000904000001020219
:1001C0000100052400100104240206052406000194
:1001D000070582030800FF09040100020A0000006D
:1001E0000705040210000507058302100005090435
:1001F0000200010300000009211101000122740026
:100200000705810308000509025F0003010080FA69
:10021000080B0002020201000904000001020201B1
:10022000000524001001042402060524060001072D
:100230000582030800FF09040100020A000000070C
:1002400005040210000507058302100005090402D9
:1002500000010300000009211001000122680007CD
:1002600005810308000509025F0003010080FA0808
:100270000B00020202010009040000010202010059
:1002800005240010010424020605240600010705C8
:1002900082030800FF09040100020A0000000705AC
:1002A000040210000507058302100005090402007E
:1002B0000103000000092111010001223800070597
:1002C000810308000512011001EF020108D016CCCD
:1002D0000B10010002030105010904A101850109B8
:1002E00001A10209300931169CFF26640036FFFF88
:1002F000460100950275088102C005091901290A05
:10030000150025017501950A810275019506810187
:10031000C005010904A10185020901A102093009F2
:1003200031169CFF26640036FFFF460100950275DA
:10033000088102C005091901290A15002501750166
:10034000950A8102750195068101C005010904A184
:100350000185010901A10209300931169CFF2664BB
:100360000036FFFF460100950275088102C00509AD
:1003700019012907150025017501950781027501ED
:1003800095098101C005010904A10185020901A1A6
:100390000209300931169CFF26640036FFFF460132
:1003A00000950275088102C0050919012907150089
:1003B0002501750195078102750195098101C00527
:1003C000010904A10185010901A1020930093116C1
:1003D0009CFF26640036FFFF4601009502750881E8
:1003E00002C00509190129041500250175019504AC
:1003F0008102750C95018101C005010904A10185E7
:10040000020901A10209300931169CFF2664003659
:10041000FFFF460100950275088102C00509190118
:10042000290415002501750195048102750C9501BB
:100430008101C005010904A1018501A1027508958A
:10044000021581257F3581457F093009318142754B
:100450000195082501450105091901290881427501
:100460000895018101C0C005010904A1018502A10F
:1004700002750895021581257F3581457F09300970
:1004800031814275019508250145010509190129A8
:10049000088142750895018101C0C005010904A1C8
:1004A000010901A10009300931169CFF26640036BC
:1004B000FFFF460100950275088102C00509190178
:1004C000290C150025017501950C81027504950113
:1004D0008101C00011241FBECFEFD4E0DEBFCDBF2D
:1004E00012E0A0E0B1E0E2E5FDE302C005900D926C
:1004F000AA33B107D9F722E0AAE3B2E001C01D9206
:10050000AF35B207E1F7C4D10C94A71E79CD089599
:100510000C946D1A0C94051B84B7877F84BF88E107
:100520000FB6F89480936000109260000FBE90E0C8
:1005300080E80FB6F89480936100909361000FBE3D
:100540000C94FA130895089581E091E00E949719A0
:1005500081E191E00E948C16E2EEF0E080818460FF
:100560008083089581E191E00E94841781E091E009
:100570000C94561880910F0190911001009729F06A
:1005800001979093100180930F010895EF92FF92CD
:100590000F931F93CF93DF937B01E9018091490271
:1005A00090914A02DC01ED91FC910680F781E02DEB
:1005B000099584E090E0F80191838083D7018C91C4
:1005C00081113FC080913A02882309F469C080916B
:1005D0000001811192C082E0F7018083809149027D
:1005E00090914A02DC01ED91FC910684F785E02DA3
:1005F000099589838091490290914A02DC01ED912D
:10060000FC910484F585E02D099588838091490249
:1006100090914A02DC01ED91FC910288F389E02D72
:1006200009957B836A838091000191E089278093FB
:10063000000181E0DF91CF911F910F91FF90EF902A
:100640000895813069F18091490290914A02DC015C
:10065000ED91FC910684F785E02D099589838091C1
:10066000490290914A02DC01ED91FC910484F585E8
:10067000E02D099588838091490290914A02DC011E
:10068000ED91FC910288F389E02D09957B836A83C3
:1006900081E0DF91CF911F910F91FF90EF9008952E
:1006A0008091490290914A02DC01ED91FC91028413
:1006B000F385E02D099589838091490290914A0242
:1006C000DC01ED91FC910084F185E02D0995888392
:1006D0008091490290914A02DC01ED91FC910088E1
:1006E000F189E02D09957B836A8381E0DF91CF91C9
:1006F0001F910F91FF90EF90089581E08C9380916E
:10070000490290914A02DC01ED91FC910284F3854B
:10071000E02D099589838091490290914A02DC017C
:10072000ED91FC910084F185E02D099588838091FD
:10073000490290914A02DC01ED91FC910088F18917
:10074000E02D09957B836A836ECF089508958150CB
:10075000843030F4E82FF0E0EE5CFE4F80810895A5
:1007600080E00895EF92FF920F931F93CF93DF9352
:10077000CDB7DEB728970FB6F894DEBF0FBECDBF5A
:100780008C017B0181E191E00E9435179C0197FD6E
:100790000AC0833609F43EC0863709F45CC060EDB8
:1007A000620F653068F028960FB6F894DEBF0FBE72
:1007B000CDBFDF91CF911F910F91FF90EF900895E2
:1007C0008091E00081608093E000D801ED91FC9180
:1007D0000484F585E02DC8010995D801ED91FC91BF
:1007E0000284F385E02DC8010995B1DF80933A02B8
:1007F000D701ED91FC910480F581E02DC7010995A9
:1008000090934A02809349028091E0008E7F80930A
:10081000E000C9CFD801ED91FC910284F385E02D71
:10082000C80109951F928F938CE391E09F938F935A
:100830008E010F5F1F4F1F930F930E94DD1B6BE311
:1008400072E0C8010E94B51B0F900F900F900F909F
:100850000F900F90A8CF1F921F921F9281E08F934D
:100860001F928F9386E391E09F938F938E010F5F8A
:100870001F4F1F930F930E94DD1B6BE372E0C801B3
:100880000E94B51B0FB6F894DEBF0FBECDBF8BCF55
:10089000CF93DF93CDB7DEB764970FB6F894DEBF82
:1008A0000FBECDBF39DE6BE372E081E191E00E94C3
:1008B00070172FEF81EE94E0215080409040E1F7D7
:1008C00000C00000CE014396EBD2BE016D5E7F4FAB
:1008D000CE01019612D1CE01019631D0CE01019602
:1008E00083D0CE01019677D032DF80933A02AE01F9
:1008F0004D5E5F4FBE016F5F7F4FCE010B9675D38C
:10090000CE010B9602D390934A02809349027894C9
:10091000BE01655F7F4FCE01019624DF81E191E04A
:100920000E941E1781E091E00E94AA190E9466169B
:10093000EFCF25E431E0FC013183208308951F933C
:10094000CF93DF93EC0119E08A819B81DC01ED916B
:10095000FC910480F581E02D612F09958A819B81AE
:10096000DC01ED91FC910088F189E02D40E0612FE0
:1009700009958A819B81DC01ED91FC910288F389C4
:10098000E02D40E0612F09951F5F1C30E9F681E002
:100990008987DF91CF911F910895FC0160870895A9
:1009A00025E431E0FC0131832083089525E431E022
:1009B000FC0131832083AECD25E431E0FC0131839D
:1009C0002083A8CDFC012185222319F0FC0111868A
:1009D00008950E94941BFC012185222319F0FC013B
:1009E000808508950E94941BCF93DF93EC01898545
:1009F000882309F480C01C821D821E821F828A8186
:100A00009B81DC01ED91FC910680F781E02D69E08E
:100A10000995813009F455C08A819B81DC01ED91F3
:100A2000FC910680F781E02D6AE00995813009F498
:100A300052C08A819B81DC01ED91FC910680F78197
:100A4000E02D6BE009954C815D816E817F81813065
:100A500009F44BC0453051056105710569F178F421
:100A6000433051056105710511F1443051056105AF
:100A7000710599F483E08887DF91CF91089546301E
:100A800051056105710571F047305105610571052A
:100A900021F41886DF91CF91089585E08887DF9152
:100AA000CF91089581E08887DF91CF91089584E008
:100AB0008887DF91CF91089582E08887DF91CF9179
:100AC00008954C815D816E817F8141604C835D839F
:100AD0006E837F83A1CF4C815D816E817F81426077
:100AE0004C835D836E837F83A4CF44604C835D839E
:100AF0006E837F83AFCF0E94941BFC0187E591E05A
:100B00009183808373836283148215821682178295
:100B100085E080871186089529E631E0FC01318364
:100B20002083089529E631E0FC0131832083089574
:100B3000299A08952998089529E631E0FC01318326
:100B40002083E8CCCF93DF93EC01ECDFCE01DF9183
:100B5000CF91E0CC653108F047C06830E0F06830F4
:100B6000B9F06D3060F13BB16D5081E090E0A0E0F4
:100B7000B0E004C0880F991FAA1FBB1F6A95D2F767
:100B8000282F209523232BB92AB1282B2AB9089581
:100B900042983A9A089535B181E090E0A0E0B0E043
:100BA00004C0880F991FAA1FBB1F6A95D2F7282F70
:100BB0002095232325B924B1282B24B9089538B1D1
:100BC000655081E090E0A0E0B0E004C0880F991F7C
:100BD000AA1FBB1F6A95D2F7282F2095232328B977
:100BE00027B1282B27B908950E94941B653108F07E
:100BF0004DC0683090F425B181E090E0A0E0B0E015
:100C000004C0880F991FAA1FBB1F6A95D2F74130F5
:100C1000A1F18095822385B90895683021F441308F
:100C200051F1429808956D3098F428B1655081E0F3
:100C300090E0A0E0B0E004C0880F991FAA1FBB1F7E
:100C40006A95D2F74130E1F08095822388B9089502
:100C50002BB16D5081E090E0A0E0B0E004C0880FBF
:100C6000991FAA1FBB1F6A95D2F7413061F080958A
:100C700082238BB90895429A0895282B25B90895A7
:100C8000282B28B90895282B2BB908950E94941B6E
:100C9000653108F04DC0683090F425B181E090E0F6
:100CA000A0E0B0E004C0880F991FAA1FBB1F6A957F
:100CB000D2F741111FC08095822385B9089568300D
:100CC00021F441112CC0429808956D30B0F428B140
:100CD000655081E090E0A0E0B0E004C0880F991F6B
:100CE000AA1FBB1F6A95D2F741111BC080958223B2
:100CF00088B90895282B25B908952BB16D5081E04E
:100D000090E0A0E0B0E004C0880F991FAA1FBB1FAD
:100D10006A95D2F7442341F0282B2BB90895429AC3
:100D20000895282B28B90895809582238BB90895BA
:100D30000E94941B6531D0F56830C8F0683091F09E
:100D40006D3020F12BB16D5081E090E0A0E0B0E07B
:100D500004C0880F991FAA1FBB1F6A95D2F72827C6
:100D60002BB9089588B194E0892788B9089525B1F1
:100D700081E090E0A0E0B0E004C0880F991FAA1FB6
:100D8000BB1F6A95D2F7282725B9089528B1655069
:100D900081E090E0A0E0B0E004C0880F991FAA1F96
:100DA000BB1F6A95D2F7282728B908950E94941B83
:100DB000653108F04DC0683090F424B181E090E0D6
:100DC000A0E0B0E004C0880F991FAA1FBB1F6A955E
:100DD000D2F741111FC08095822384B908956830ED
:100DE00021F441112CC03A9808956D30B0F427B128
:100DF000655081E090E0A0E0B0E004C0880F991F4A
:100E0000AA1FBB1F6A95D2F741111BC08095822390
:100E100087B90895282B24B908952AB16D5081E02F
:100E200090E0A0E0B0E004C0880F991FAA1FBB1F8C
:100E30006A95D2F7442341F0282B2AB908953A9AAB
:100E40000895282B27B90895809582238AB908959B
:100E50000E94941B653110F5683088F423B181E05D
:100E600090E0A0E0B0E004C0880F991FAA1FBB1F4C
:100E70006A95D2F7282381E009F480E0089568306C
:100E800029F486B182FB882780F908956D3018F423
:100E900026B16550E4CF29B16D50E1CF0E94941B7B
:100EA00021E831E0FC0131832083089529E931E014
:100EB000FC01318320830895CF93DF93EC0183EA13
:100EC00091E0998388838E819F81009749F0DC01AE
:100ED000ED91FC910280F381E02D09951F821E8225
:100EE00089E991E099838883DF91CF91089529E979
:100EF00031E0FC01318320830DCBCF93DF93EC01F4
:100F0000DBDFCE01DF91CF9105CB0F931F93CF9302
:100F1000DF93EC018E819F81009749F0DC01ED9118
:100F2000FC910280F381E02D09951F821E828A8147
:100F30009B81DC01ED91FC910284F385E02D099504
:100F40008230A9F198F4882319F1813089F48AE17B
:100F500090E0DEDA8C016C817D8140D30E831F83AB
:100F6000C801DF91CF911F910F910895833071F1E6
:100F700080E190E0CDDA8C016C817D810E94BA1015
:100F80000E831F83C801DF91CF911F910F910895A8
:100F900080E190E0BDDA8C016C817D818DD00E8383
:100FA0001F83C801DF91CF911F910F9108958AE1AE
:100FB00090E0AEDA8C016C817D81EFD40E831F83CB
:100FC000C801DF91CF911F910F91089582E290E0C7
:100FD0009FDA8C016C817D81B2D50E831F83C8019D
:100FE000DF91CF911F910F910895FC01738362836C
:100FF0005583448383EA91E091838083178216822C
:1010000008952DEA31E0FC01318320830895FC012D
:1010100084810895FC0185810895FC0186810895ED
:10102000FC0187810895FC01608571858285938527
:101030000895FC016485758586859785089581E00E
:1010400008952DEA31E0FC013183208308952DEAD3
:1010500031E0FC01318320835DCACF93DF93EC0143
:10106000F0DFCE01DF91CF9155CA1F93CF93DF936D
:10107000EC01162F8A819B81DC01ED91FC910480AB
:10108000F581E02D09958A819B81DC01ED91FC9130
:101090000088F189E02D40E0612F09958A819B81CC
:1010A000DC01ED91FC910288F389E02D41E0612F94
:1010B000DF91CF911F910994CF93DF93EC017B8354
:1010C0006A831C821D82188619861A861B8685EC07
:1010D00091E09983888363E0CE01C7DF64E0CE01AD
:1010E000C4DF61E0CE01C1DF62E0CE01BEDF65E0BA
:1010F000CE01BBDF66E0CE01B8DF67E0CE01B5DF31
:101100006CE0CE01B2DF63E1CE01AFDF62E1CE0180
:10111000ACDF61E1CE01A9DF60E1CE01A6DF6FE0C7
:10112000CE01A3DF6EE0CE01A0DF6DE0CE019DDF3A
:1011300068E0CE01DF91CF9198CF1F93CF93DF93DB
:10114000142FE901DC0112968D919C911397DC011B
:10115000ED91FC910680F781E02D0995811115C074
:1011600041E050E002C0440F551F1A95E2F760E0DD
:1011700070E088819981AA81BB81842B952BA62B55
:10118000B72B88839983AA83BB83DF91CF911F916B
:1011900008950F931F93CF93DF93EC018A819B8176
:1011A000DC01ED91FC910680F781E02D61E009956D
:1011B000811165C08CE98C838A819B81DC01ED9172
:1011C000FC910680F781E02D63E00995811149C00B
:1011D0008CE98D83188619861A861B868E01085F16
:1011E0001F4F980140E065E0CE01A7DF980141E084
:1011F00066E0CE01A2DF980142E067E0CE019DDF0C
:10120000980143E06CE0CE0198DF980144E063E18F
:10121000CE0193DF980145E062E1CE018EDF9801B7
:1012200046E061E1CE0189DF980147E060E1CE014F
:1012300084DF980148E06FE0CE017FDF980149E04C
:101240006EE0CE017ADF98014AE06DE0CE0175DFF5
:1012500098014BE068E0CE01DF91CF911F910F9193
:101260006CCF8A819B81DC01ED91FC910680F78136
:10127000E02D64E00995882399F01D82ABCF8A8127
:101280009B81DC01ED91FC910680F781E02D62E00D
:101290000995811103C084E68C838ECF1C828CCF8C
:1012A00084E68D8397CF82E008952DEA31E0FC013A
:1012B000318320830895CF93DF93EC01F6DFCE01D5
:1012C000DF91CF9127C92F923F924F925F926F92F9
:1012D0007F928F929F92AF92BF92CF92DF92EF92C6
:1012E000FF920F931F93CF93DF937C016B014A0111
:1012F0001901DC0112968D919C911397DC01ED91FF
:10130000FC910084F185E02D41E0DB0112966C91A7
:101310000995B5E0BA95F1F70000F7018281938154
:10132000DC01ED91FC910084F185E02D40E0D601D7
:1013300012966C910995B5E0BA95F1F70000C0E0FE
:10134000D0E0412C512C3201AA24A394B12CF701F6
:1013500082819381DC01ED91FC910680F781E02D83
:10136000D60113966C91099581110DC0C5010C2E03
:1013700002C0880F991F0A94E2F7A0E0B0E0482A63
:10138000592A6A2A7B2AF70182819381DC01ED9137
:10139000FC910084F185E02D41E0D60111966C911D
:1013A0000995F70182819381DC01ED91FC91008424
:1013B000F185E02D40E0D60111966C910995B5E0DC
:1013C000BA95F1F700002196CC30D10509F0BFCFD6
:1013D00046FE86C081E8F401808344FE7BC081E83C
:1013E000D1018C9350FC6CC0F801108211821282E2
:1013F000138240FE0AC0F80180819181A281B381ED
:10140000826080839183A283B38351FE0AC0F80176
:1014100080819181A281B381846080839183A28342
:10142000B38341FE0AC0F80180819181A281B3811A
:10143000886080839183A283B38352FE0AC0F8013F
:1014400080819181A281B381806180839183A28315
:10145000B38353FE0AC0F80180819181A281B381D8
:10146000806280839183A283B38343FE0AC0F80124
:1014700080819181A281B381806480839183A283E2
:10148000B38342FE0AC0F80180819181A281B381B9
:10149000806880839183A283B383DF91CF911F9172
:1014A0000F91FF90EF90DF90CF90BF90AF909F9003
:1014B0008F907F906F905F904F903F902F90089506
:1014C00081E090E0A0E0B0E0F80180839183A28306
:1014D000B3838FCF45FE0DC08FE7F101808382CFAC
:1014E00047FE04C08FE7D4018C9377CFF4011082BC
:1014F00074CFD1011C9276CF0F931F93CF93DF93BC
:10150000EC018C01085F1F4F9C012B5F3F4FAC012A
:101510004C5F5F4FBC01605F7F4FD5DE0C5F1F4F9C
:101520009E01295F3F4FAE014A5F5F4FBE016B5E78
:101530007F4FCE01C8DEDF91CF911F910F910895AB
:101540001F93CF93DF93EC01162F8A819B81DC01DF
:10155000ED91FC910480F581E02D09958A819B81B4
:10156000DC01ED91FC910088F189E02D40E0612FD4
:1015700009958A819B81DC01ED91FC910288F389B8
:10158000E02D41E0612FDF91CF911F9109941F93CE
:10159000CF93DF93EC01162F8A819B81DC01ED91C3
:1015A000FC910480F581E02D09958A819B81DC0105
:1015B000ED91FC910088F189E02D41E0612F0995C2
:1015C0008A819B81DC01ED91FC910084F185E02D05
:1015D00040E0612FDF91CF911F910994CF92DF926C
:1015E000EF92FF920F931F93CF93DF93EC017B83D6
:1015F0006A831C821D82188619861A861B868DEDC9
:1016000091E09983888381E0888B82E0898B83E0F5
:101610008A8B84E08B8B85E08C8B83E18D8B82E1E0
:101620008E8B81E18F8B80E1888F8FE0898F8E0197
:101630000C5E1F4F6E018EE1C80ED11C64E0CE011E
:101640007FDFF80133976081CE01A1DFF801329787
:101650006081CE019CDF7801A4E0EA1AF108F7016D
:101660006081CE0194DFD8016C91CE0190DF8A8138
:101670009B81DC01ED91FC910084F185E02D41E03E
:10168000D7016C9109958A819B81DC01ED91FC91D8
:101690000084F185E02D40E0D8016C9109950B5F45
:1016A0001F4F0C151D0521F0F80131976081C7CF40
:1016B000DF91CF911F910F91FF90EF90DF90CF902E
:1016C000089583E008952DEA31E0FC013183208301
:1016D0000895CF93DF93EC01F6DFCE01DF91CF9138
:1016E0000C948A022F923F924F925F926F927F9258
:1016F0008F929F92AF92BF92CF92DF92EF92FF9222
:101700000F931F93CF93DF937C016B014A01190163
:10171000DC0112968D919C911397DC01ED91FC9167
:101720000084F185E02D41E0DB0112966C91099572
:10173000B5E0BA95F1F70000F70182819381DC01F1
:10174000ED91FC910084F185E02D40E0D6011296E8
:101750006C910995B5E0BA95F1F70000C0E0D0E0D2
:10176000412C512C3201AA24A394B12CF70182817F
:101770009381DC01ED91FC910680F781E02DD6018B
:1017800013966C91099581110DC0C5010C2E02C0F4
:10179000880F991F0A94E2F7A0E0B0E0482A592A7E
:1017A0006A2A7B2AF70182819381DC01ED91FC9109
:1017B0000084F185E02D41E0D60111966C910995E8
:1017C000F70182819381DC01ED91FC910084F18528
:1017D000E02D40E0D60111966C910995B5E0BA95DF
:1017E000F1F700002196C830D10509F0BFCF46FEC1
:1017F00056C08CE9F401808344FE4BC08CE9D101D2
:101800008C9340FC3CC0F80110821182128213823A
:1018100041FE0AC0F80180819181A281B38182607A
:1018200080839183A283B38343FE0AC0F801808141
:101830009181A281B381846080839183A283B383E9
:1018400042FE0AC0F80180819181A281B381886043
:1018500080839183A283B383DF91CF911F910F91F6
:10186000FF90EF90DF90CF90BF90AF909F908F90C0
:101870007F906F905F904F903F902F90089581E000
:1018800090E0A0E0B0E0F80180839183A283B3836D
:10189000BFCF45FE0DC084E6F1018083B2CF47FE85
:1018A00004C084E6D4018C93A7CFF4011082A4CFA6
:1018B000D1011C92A6CF0F931F93CF93DF93EC011E
:1018C0008C01085F1F4F9C012B5F3F4FAC014C5FA9
:1018D0005F4FBC01605F7F4F05DF0C5F1F4F9E01B4
:1018E000295F3F4FAE014A5F5F4FBE016B5E7F4F86
:1018F000CE01F8DEDF91CF911F910F9108951F93D4
:10190000CF93DF93EC01162F8A819B81DC01ED914F
:10191000FC910480F581E02D09958A819B81DC0191
:10192000ED91FC910088F189E02D40E0612F09954F
:101930008A819B81DC01ED91FC910288F389E02D85
:1019400041E0612FDF91CF911F9109941F93CF93B5
:10195000DF93EC01162F8A819B81DC01ED91FC91D4
:101960000480F581E02D09958A819B81DC01ED9150
:10197000FC910088F189E02D41E0612F09958A8171
:101980009B81DC01ED91FC910084F185E02D40E02C
:10199000612FDF91CF911F910994CF92DF92EF9247
:1019A000FF920F931F93CF93DF93EC017B836A83A6
:1019B0001C821D82188619861A861B8685EF91E087
:1019C0009983888381E0888B82E0898B83E08A8B8E
:1019D00084E08B8B85E08C8B83E18D8B82E18E8B19
:1019E00081E18F8B80E1888F8FE0898F8E010C5E83
:1019F0001F4F6E018EE1C80ED11C64E0CE017FDF67
:101A0000F80133976081CE01A1DFF8013297608140
:101A1000CE019CDF7801A4E0EA1AF108F7016081A9
:101A2000CE0194DFD8016C91CE0190DF8A819B8139
:101A3000DC01ED91FC910084F185E02D41E0D701BE
:101A40006C9109958A819B81DC01ED91FC91008468
:101A5000F185E02D40E0D8016C9109950B5F1F4F97
:101A60000C151D0521F0F80131976081C7CFDF917A
:101A7000CF911F910F91FF90EF90DF90CF9008953D
:101A800084E008952DEA31E0FC013183208308953C
:101A9000CF93DF93EC01F6DFCE01DF91CF910C9471
:101AA0008A021F93CF93DF93EC01162F8A819B81CB
:101AB000DC01ED91FC910480F581E02D09958A818E
:101AC0009B81DC01ED91FC910088F189E02D40E0E3
:101AD000612F09958A819B81DC01ED91FC9102883F
:101AE000F389E02D41E0612FDF91CF911F9109949F
:101AF0001F93CF93DF93EC01162F8A819B81DC012A
:101B0000ED91FC910480F581E02D09958A819B81FE
:101B1000DC01ED91FC910088F189E02D41E0612F1D
:101B200009958A819B81DC01ED91FC910084F1850E
:101B3000E02D40E0612FDF91CF911F910994CF926A
:101B4000DF92EF92FF920F931F93CF93DF93EC01FD
:101B50007B017B836A831C821D82188619861A8604
:101B60001B868DE092E09983888318A281E0888BA0
:101B700082E0898B83E08A8B84E08B8B85E08C8B81
:101B800086E08D8B87E08E8B8CE08F8B83E1888F56
:101B900082E1898F81E18A8F80E18B8F8FE08C8F4A
:101BA0008EE08D8F8DE08E8F88E08F8FC12CD12CB1
:101BB00061E08E01CE0175DFD80151966C91CE01A6
:101BC00070DFF8016289CE016CDFD80153966C9109
:101BD000CE0167DFF8016489CE018ADFD80155960E
:101BE0006C91CE015EDFF8016689CE0181DFD801FC
:101BF00057966C91CE0155DFD701ED91FC91008491
:101C0000F185E02D41E0D80154966C91C70109950A
:101C1000D701ED91FC910084F185E02D40E0D801E1
:101C200056966C91C7010995B8E0CB0ED11CE0E146
:101C3000CE16D10439F08E010C0D1D1DD801509621
:101C40006C91B8CFDF91CF911F910F91FF90EF90E2
:101C5000DF90CF900895662341F080E095E09A955B
:101C6000F1F700008F5F8613F9CF0895EF92FF928E
:101C70000F931F93CF93DF93EC018B017A018A813D
:101C80009B81DC01ED91FC910084F185E02D40E029
:101C9000DB0116966C91099564E6CE01DCDF8A8142
:101CA0009B81DC01ED91FC910680F781E02DD8014C
:101CB0006C910995811106C0F70180819181816045
:101CC000918380838A819B81DC01ED91FC91068068
:101CD000F781E02DD80111966C910995811106C00C
:101CE000F701808191818260918380838A819B81C9
:101CF000DC01ED91FC910680F781E02DD80113966F
:101D00006C910995811106C0F701808191819860DD
:101D1000918380838A819B81DC01ED91FC91068017
:101D2000F781E02DD80115966C910995811106C0B7
:101D3000F701808191818061918380838A819B8179
:101D4000DC01ED91FC910680F781E02DD80117961A
:101D50006C910995811106C0F70180819181946091
:101D6000918380838A819B81DC01ED91FC910084C9
:101D7000F185E02D41E0D80116966C91099564E655
:101D8000CE0169DF8A819B81DC01ED91FC910680A7
:101D9000F781E02DD80112966C910995811106C04A
:101DA000F701808191818460918380838A819B8106
:101DB000DC01ED91FC910680F781E02DD8011396AE
:101DC0006C910995811106C0F7018081918188602D
:101DD000918380838A819B81DC01ED91FC91068057
:101DE000F781E02DD80115966C910995811106C0F7
:101DF000F701808191818062918380838A819B81B8
:101E0000DC01ED91FC910680F781E02DD801179659
:101E10006C910995811106C0F701808191818064E0
:101E20009183808364E6CE01DF91CF911F910F9162
:101E3000FF90EF9010CFEF92FF920F931F93CF93ED
:101E4000DF93EC018B017A0111DFA701B801CE010C
:101E50000DDF8A819B81DC01ED91FC910084F1858D
:101E6000E02D40E0D80116966C91099564E6CE010C
:101E7000F2DE8A819B81DC01ED91FC910084F18589
:101E8000E02D41E0D80116966C9109958A819B81DD
:101E9000DC01ED91FC910680F781E02DD8016C9179
:101EA0000995811106C0F70180819181926091832B
:101EB00080838A819B81DC01ED91FC910680F78112
:101EC000E02DD80111966C910995811106C0F7019A
:101ED000808191819160918380838A819B81DC01E3
:101EE000ED91FC910680F781E02DD80112966C915E
:101EF0000995811106C0F7018081918180689183E5
:101F000080838A819B81DC01ED91FC910084F185C5
:101F1000E02D40E0D80116966C91099564E6CE015B
:101F20009ADE8A819B81DC01ED91FC910084F18530
:101F3000E02D41E0D80116966C9109956AEFCE012B
:101F40008ADE6AEFCE0187DE6AEFCE0184DE6AEFB9
:101F5000CE01DF91CF911F910F91FF90EF907BCE3B
:101F60008F929F92AF92BF92CF92DF92EF92FF92A9
:101F70000F931F93CF93DF9300D0CDB7DEB75A01F5
:101F800049011A821982F7012081AE014F5F5F4F2C
:101F9000222309F49AC04FDF29813A8122FF8FC0A2
:101FA0008CE9F501808320FF84C08CE9F4018083F3
:101FB00024FBCC24C0F8D12C24FD71C0F801108280
:101FC00011821282138225FF0AC0F801808191815B
:101FD000A281B381826080839183A283B38326FF31
:101FE0000AC0F80180819181A281B38184608083DD
:101FF0009183A283B383832F8695869580FF0AC041
:10200000F80180819181A281B38180648083918372
:10201000A283B38327FF0AC0F80180819181A28146
:10202000B381886080839183A283B38330FF0AC029
:10203000F80180819181A281B38180618083918345
:10204000A283B383832F869580FF0AC0F801808125
:102050009181A281B381806280839183A283B383C3
:10206000CD2831F0C9018076992780369105A9F1F4
:10207000832F86958695869580FD02C0F701108294
:102080000F900F90DF91CF911F910F91FF90EF90E4
:10209000DF90CF90BF90AF909F908F90089581E098
:1020A00090E0A0E0B0E0F80180839183A283B38345
:1020B0008ACF21FF0FC084E6F401808379CF23FF0C
:1020C00006C084E6F50180836ECFD0DD65CFF501D3
:1020D000108269CFF40110826BCFC90181709470B6
:1020E0008130944029F681E0F7018083C9CFEF92D7
:1020F000FF920F931F93CF93DF93EC017C0180E25B
:10210000E80EF11C8E01085F1F4F9E012B5F3F4FB1
:10211000AE014C5F5F4FBE01605F7F4FCE0120DF9D
:102120007E0181E2E80EF11C0C5F1F4F9E01295FCA
:102130003F4FAE014A5F5F4FBE01685E7F4FCE01E9
:102140000FDFDF91CF911F910F91FF90EF900895D6
:1021500080E008952DEA31E0FC0131832083089569
:102160000895CF93DF93EC01F5DFCE01DF91CF919E
:102170000C948A02FC017383628314821582108698
:1021800011861286138685E292E0918380830895FA
:10219000292F33272330310529F194F421303105DB
:1021A000B9F12230310561F580913A02811144C0C4
:1021B0008FE590E026E632E0FA013183208308952E
:1021C0002132310569F122323105D1F480913A0290
:1021D000811143C088E390E02BE934E0FA013183B8
:1021E0002083089599278130910509F479C00CF472
:1021F00053C08230910509F46DC0039709F455C0AE
:1022000080E090E020E030E0FA01318320830895FF
:1022100082E190E025EC32E0FA01318320830895D9
:1022200080913A02811129C089E090E025EB32E0EB
:10223000FA01318320830895813009F441C082304E
:1022400009F454C0833009F465C0843009F0B0CF7C
:102250008FE590E02AEE30E0D7CF813061F1823017
:1022600009F44EC0833009F450C0843009F0B2CF75
:1022700084E790E027ED32E0C7CF813031F1823042
:1022800009F439C0833009F44AC0843069F689E022
:1022900090E029E331E0B8CF892B09F0B1CFE6EE29
:1022A000F0E0849190E09F01AFCFE4E7F0E084910B
:1022B00090E09F01A9CF88E690E023E334E0A4CF2B
:1022C0008FE590E027E032E09FCF89E090E026E5BF
:1022D00032E09ACFE0ECF0E0849190E09F0194CF5F
:1022E000ECEDF0E0849190E09F018ECF8FE590E0DF
:1022F00028EA31E089CF89E090E027EF31E084CF10
:1023000084E790E02FEB33E07FCF84E790E02BE48D
:1023100033E07ACF8FE590E029E431E075CF89E0B2
:1023200090E028E931E070CFCF92DF92EF92FF92F8
:102330000F931F93CF93DF937C01EB016A01F0D1E0
:1023400081112BC0C114D10439F0F6018081918133
:10235000C81BD90BE80EF91E2097F1F000E010E041
:102360000DC08091E8008E778093E800C114D104FD
:10237000E9F4D6D1811111C0209771F08091E80065
:1023800085FFEFCFF70181917F018093F1002197C5
:102390000F5F1F4F209791F780E0DF91CF911F9142
:1023A0000F91FF90EF90DF90CF900895F60180811C
:1023B0009181800F911F9183808385E0EECF2091E2
:1023C000590230915A022617370750F061157105EE
:1023D00091F52091E8002E772093E80020E030E08E
:1023E00060E00EC0453049F14091E80043FD27C050
:1023F0004091E80042FD19C04091E80040FD21C035
:102400002115310511F4662381F0409152024111EA
:10241000E9CF82E00895809152028823D1F385307C
:1024200061F08091E80083FD0AC08091E80082FF9E
:10243000F2CF80E008959B01D3CF83E0089581E03F
:1024400008954091F20050E02115310599F048308F
:10245000510580F4FC0103C04830510559F08191C9
:102460008093F100CF01215031094F5F5F4F21155B
:10247000310591F761E04830510509F060E0409185
:10248000E8004E774093E800BBCF6115710529F451
:102490002091E8002B772093E8006115710559F42D
:1024A00012C02530C9F02091E80023FD17C020910B
:1024B000E80022FD15C0209152022111F2CF82E0E6
:1024C0000895853049F08091E80080FD19C0809121
:1024D00052028111F6CFF3CF83E0089581E0089591
:1024E000FC01CF012091F200222391F28091F100B2
:1024F0008193CF01615071096115710591F7C8CFC2
:1025000080E008952091590230915A02261737072A
:1025100050F06115710599F52091E8002E77209310
:10252000E80020E030E0FC0140E00EC0853049F1D9
:102530008091E80083FD27C08091E80082FD19C0EA
:102540008091E80080FD21C02115310511F444235C
:1025500081F0809152028111E9CF82E0089580914B
:1025600052028823D1F3853061F08091E80083FD29
:102570000AC08091E80082FFF2CF80E008959B01BD
:10258000D2CF83E0089581E008958091F20090E039
:102590002115310519F08830910568F041E0089760
:1025A00009F040E08091E8008E778093E800CCCF7E
:1025B0008830910599F344914093F1003196215070
:1025C000310901962115310599F7E8CF853098F545
:1025D0008093E900982F242F762F50E021FF19C017
:1025E0003091EB003E7F3093EB003091ED003D7F6A
:1025F0003093ED003091EB0031603093EB0070933D
:10260000EC002093ED005093F0002091EE0027FFA6
:102610001BC09F5F953079F09093E900891781F096
:102620007091EC002091ED005091F00021FDD8CF89
:102630009F5F953089F78F708093E90081E008955E
:10264000242F762F50E0CACF80E008950F931F9378
:10265000CF93DF93062F662371F1EC0110E05881D0
:10266000552329F19C81E981FA816B81852F8F7037
:10267000853068F5923028F146E0E930F10528F11F
:1026800028E030E090E09F5F220F331F2E173F07B6
:10269000D0F39295907F492B551F5527551F629572
:1026A000660F660F607C652B91DF882381F01F5FCA
:1026B00025961013D4CF81E0DF91CF911F910F9118
:1026C000089542E0E930F105D8F690E0E4CF80E0EB
:1026D000DF91CF911F910F9108958091530287FD53
:1026E00013C004C0809152028823C1F08091E80099
:1026F00080FFF8CF8091E8008E778093E8000895FE
:1027000080915202882359F08091E80082FFF8CF2F
:102710008091E8008B778093E800089508950895EC
:102720002091E4003091E50045E68091EC0080FFC7
:102730001CC08091E80080FD1CC08091520288235B
:10274000D1F08530D1F08091EB0085FD18C08091EB
:10275000E4009091E5002817390739F3415089F0DA
:102760009C018091EC0080FDE4CF8091E80082FF25
:10277000E4CF80E0089582E0089583E0089581E049
:10278000089584E008953FD041D08091D8008F779C
:102790008093D8008091D80080688093D800809181
:1027A000D8008F7D8093D80084E089BD86E089BD04
:1027B00009B400FEFDCF1092520210924F02109207
:1027C000500242E060E080E001DF8091E1008E7F16
:1027D0008093E1008091E20081608093E20080912B
:1027E000E20088608093E2008091E0008E7F809319
:1027F000E0000895E3E6F0E080818E7F808381E051
:1028000080935102C0CF1092E20008951092E1002F
:1028100008951F920F920FB60F9211242F933F939A
:102820004F935F936F937F938F939F93AF93BF93D8
:10283000EF93FF938091E10082FF04C08091E2005A
:1028400082FD8AC08091E10080FF04C08091E20097
:1028500080FD6DC08091E10084FF2CC08091E2007A
:1028600084FF28C084E089BD86E089BD09B400FEEC
:10287000FDCF8091D8008F7D8093D8008091E100BA
:102880008F7E8093E1008091E2008F7E8093E20052
:102890008091E20081608093E20080914F0281117B
:1028A00063C08091E30087FF63C083E0809352029E
:1028B0000E94A2028091E10083FF04C08091E200A7
:1028C00083FD11C0FF91EF91BF91AF919F918F91C7
:1028D0007F916F915F914F913F912F910F900FBE1C
:1028E0000F901F9018958091E100877F8093E10001
:1028F00082E08093520210924F028091E1008E7F1D
:102900008093E1008091E2008E7F8093E2008091CD
:10291000E20080618093E20042E060E080E056DE09
:102920008091F00088608093F000CFD1CBCF809170
:10293000E2008E7F8093E2008091E20080618093CC
:10294000E2008091D80080628093D80019BC109278
:1029500052020E94A3027ECF8091E1008B7F809380
:10296000E1000E94BA026ECF84E080935202A0CFB1
:1029700081E09CCF1F920F920FB60F9211242F93DC
:102980003F934F935F936F937F938F939F93AF93F7
:10299000BF93CF93EF93FF93C091E900CF708091E5
:1029A000EC001092E9008091F000877F8093F000A6
:1029B00078941BD01092E9008091F0008860809399
:1029C000F000C093E900FF91EF91CF91BF91AF91DB
:1029D0009F918F917F916F915F914F913F912F9137
:1029E0000F900FBE0F901F9018951F93CF93DF93FA
:1029F000CDB7DEB7AA970FB6F894DEBF0FBECDBF36
:102A0000E3E5F2E08091F100819322E0EB35F207FB
:102A1000C9F70E94B2028091E80083FF10C0909134
:102A20005302809154028530A1F108F479C08830B6
:102A3000F1F0893009F4B3C0863009F44AC08091BE
:102A4000E80083FF0AC08091E800877F8093E80058
:102A50008091EB0080628093EB00AA960FB6F89409
:102A6000DEBF0FBECDBFDF91CF911F91089590388B
:102A700031F78091E800877F8093E80080914F02D2
:102A80008093F1008091E8008E778093E80025DE46
:102A9000D6CF9111D4CF109155021F778091E300CA
:102AA0008078812B8093E3008091E800877F80937A
:102AB000E80013DE8091E80080FFFCCF8091E30006
:102AC00080688093E3001111BAC082E080935202C3
:102AD000B6CF9058923008F0B2CF809155029091C5
:102AE00056028C3D23E0920709F4ABC06091570277
:102AF00070915802AE014F5F5F4F4ADB009709F4B7
:102B00009ECF2091E800277F2093E800BC018981B7
:102B10009A81F8DC8091E8008B778093E8008FCF72
:102B2000813029F008F455C0833009F088CF99230B
:102B300009F473C0923009F082CF9091550291113F
:102B400025C0209157022F709FEF920F943008F00C
:102B500076CF2093E9009091EB0090FF17C083306F
:102B600009F4ABC08091EB0080618093EB0081E0C1
:102B700090E001C0880F2A95EAF78093EA0010924E
:102B8000EA008091EB0088608093EB001092E900EE
:102B90008091E800877F8093E8009FDD50CF9111FE
:102BA0004ECF80915502823008F049CF9091E800D5
:102BB000977F9093E80080934F028FDD80914F02C2
:102BC000882309F472C084E0809352020E94A40218
:102BD00036CF903871F1923809F031CF8091570299
:102BE0008F70853008F02BCF8093E9008091EB0047
:102BF00085FB882780F91092E9009091E800977F83
:102C00009093E8008093F1001092F1008091E80029
:102C10008E778093E80061DD12CF9091550291305C
:102C200009F00DCF91E0833009F090E090935002CD
:102C3000ADCF80915002882301F382E0DECF83E0A4
:102C400045CF83E08A838AE289835FB7F894DE0107
:102C5000139620E03EE041E207C090E0C7968D93D6
:102C60009D932F5F243181F0E32FF0E040935700D4
:102C7000849120FF03C082958F703F5F8F708A30F0
:102C800060F790E0C096EBCF5FBF8091E800877F50
:102C90008093E8006AE270E0CE01019690DB8091BB
:102CA000E8008B778093E800CACE8091E30087FF2D
:102CB0000AC084E08093520289CF8091EB00806249
:102CC0008093EB0063CF81E0F5CF0895CF9380919F
:102CD00052028823A1F08091E9008F709091EC005E
:102CE00090FD0FC090E0C92FC82B1092E900909181
:102CF000E80093FD0FC08C2F8F708093E900CF9177
:102D0000089590E8C92FC82B1092E9009091E8002F
:102D100093FFF1CF6ADEEFCFCF93DF93EC01FC019D
:102D200070968BE0DF011D928A95E9F782E08C8333
:102D3000898783E08E8761E0CE01019687DC81116F
:102D400004C080E0DF91CF91089561E0CE01069646
:102D50007DDC8823B1F361E0CE010B96DF91CF914A
:102D600075CC0F931F93CF93DF931F92CDB7DEB730
:102D700020915202243039F082E00F90DF91CF9100
:102D80001F910F910895FC010489158926893789BF
:102D9000012B022B032B81F381818F708093E9003B
:102DA0008091E80085FF04C06093F10080E0E5CFEA
:102DB0008091E8008E778093E8006983B1DC6981B7
:102DC000882391F3DACFFB01682F84859585C9DFCD
:102DD00021E030E0811102C020E030E0882799270F
:102DE000821B930B089520915202243011F082E04F
:102DF0000895FC014489558966897789452B462BBE
:102E0000472BA9F381818F708093E9008091F200B4
:102E1000882349F09091E8008091E8008E778093B4
:102E2000E80095FF02C080E008957ADC8111E0CFD0
:102E30008091E8008E778093E800F5CF20915202D0
:102E4000243009F00895FC01448955896689778901
:102E5000452B462B472BB1F321812F702093E9009E
:102E60002091E80020FFEECFBECF20915202243007
:102E700019F5FC014489558966897789452B462BCC
:102E8000472BD1F086818F708093E9008091E80014
:102E900082FF12C08091F200882389F02091F10016
:102EA00030E08091F200811110C08091E8008B77B2
:102EB0008093E800C90108958FEF9FEF08952FEFE9
:102EC0003FEF8091F200882381F3C9010895FC014E
:102ED00084859585CADF97FF08958EEF9FEF08954B
:102EE000FB012EE0DB011D922A95E9F723E0238305
:102EF00023EE36E13187208727E637E133872287C3
:102F000095878487089508950F931F93CF93DF9338
:102F100000D0CDB7DEB72091E80023FF0AC0FC0146
:102F2000208130E0409157025091580242175307D8
:102F300039F00F900F90DF91CF911F910F9108956D
:102F400020915402213209F458C0E0F0223209F4F1
:102F50008FC0233271F720915302213251F7209113
:102F6000E800277F2093E80089839A83B6DB60918D
:102F7000550289819A810F900F90DF91CF911F9117
:102F80000F91C1CF2032A9F620915302213289F648
:102F90002091E800277F2093E80004C0209152028E
:102FA000222339F22091E80022FFF8CF5091F1005E
:102FB0004091F1003091F1002091F100FC01548B1F
:102FC000458B368B278B2091F100208F2091F100CB
:102FD000218F2091F100228F2091E8002B77209300
:102FE000E80089839A8379DB89819A810F900F9019
:102FF000DF91CF911F910F9186CF20915302213AFB
:1030000009F097CF2091E800277F2093E8002091D6
:10301000E80020FFFCCFFC01448955896689778947
:103020004093F100052F162F272F33270093F1002F
:103030008B01222733270093F100472F552766275E
:1030400077274093F100208D2093F100218D20936C
:10305000F100828D8093F1008091E8008E7780935B
:10306000E8000F900F90DF91CF911F910F9135CB1A
:1030700020915302213209F05CCF2091E800277F94
:103080002093E80089839A8328DB209155023091B0
:10309000560289819A81FC01318B208B0F900F9011
:1030A000DF91CF911F910F910C94A6034F925F92E5
:1030B0006F927F928F929F92AF92BF92CF92DF9248
:1030C000EF92FF920F931F93CF93DF9300D01F9245
:1030D000CDB7DEB76C01EDB6FEB68091E80083FF98
:1030E0000AC0F601808190E0209157023091580289
:1030F00028173907C9F00FB6F894FEBE0FBEEDBE13
:103100000F900F900F90DF91CF911F910F91FF9033
:10311000EF90DF90CF90BF90AF909F908F907F9077
:103120006F905F904F90089580915402833009F41E
:10313000C8C008F446C08A3009F4DCC08B3009F4FA
:10314000ACC08930C1F6809153028132A1F66DB6D0
:103150007EB6A0905902B0905A025090550240900D
:1031600056028DB79EB78A199B090FB6F8949EBF79
:103170000FBE8DBFEDB7FEB731964F018091E800CD
:10318000877F8093E800B501CF017FD98091E80067
:103190008E778093E80021E0511001C020E030E0FC
:1031A0008501021B130B280D391D4FEF440D652DB2
:1031B000C6010E94A5030FB6F8947EBE0FBE6DBE79
:1031C0009ACF8130C9F0823009F095CF80915302B7
:1031D000813A09F090CF8091E800877F8093E800E2
:1031E0008091E80080FFFCCFF60184859585969557
:1031F00087959695879575C080915302813A09F01D
:103200007ACF8DB69EB61A8219828091550210919E
:1032100056028B83F601408550E08DB79EB7841B24
:10322000950B0FB6F8949EBF0FBE8DBFEDB7FEB7DE
:1032300031965F0160E070E0CF0190D24FEF410F17
:103240008E010F5F1F4F9501BE016D5F7F4FC6015D
:103250000E94C602F60186819781009721F0408581
:1032600050E0B50172D21092E9008091E800877FAA
:103270008093E8008B8181118093F10069817A81CC
:10328000C5019DD88091E8008B778093E8000FB648
:10329000F8949EBE0FBE8DBE2ECF80915302813218
:1032A00009F029CF8091E800877F8093E80015DA44
:1032B0009091550281E0911101C080E0F601818773
:1032C0001ACF80915302813A09F015CF8091E8001E
:1032D000877F8093E8008091E80080FFFCCFF601B3
:1032E00081858093F1008091E8008E778093E800DB
:1032F000F4D901CF80915302813209F0FCCE809144
:10330000E800877F8093E800E8D98091550290918A
:10331000560288270024880F991F001C880F991FC8
:10332000001C892F902DF60195878487E4CEFC013F
:10333000399627E0DF011D922A95E9F721E0FC018B
:10334000218724EF31E03587248723E0248361E05F
:1033500001967CC95F926F927F928F929F92AF92FB
:10336000BF92CF92DF92EF92FF920F931F93CF9372
:10337000DF9300D01F92CDB7DEB77C01CDB6DEB6AD
:10338000809152028430C1F00FB6F894DEBE0FBEB9
:10339000CDBE0F900F900F90DF91CF911F910F91A5
:1033A000FF90EF90DF90CF90BF90AF909F908F9065
:1033B0007F906F905F9008958091E4009091E50078
:1033C000F7012285338528173907F1F281818F7043
:1033D0008093E9008091E80085FFD6CF8DB69EB638
:1033E000408550E08DB79EB7841B950B0FB6F894BF
:1033F0009EBF0FBE8DBFEDB7FEB731965F011B823A
:103400001A82198260E070E0CF01A8D18E010F5FAF
:103410001F4F950140E0BE016D5F7F4FC7010E94C5
:10342000C602782EF70124853585232B09F44CC07C
:103430006624639486859785892B09F045C0F7013A
:10344000068117810115110509F445C049815A818A
:10345000B801C5016DD155245394892BB9F1F701F9
:10346000408550E0B501C80170D129813A81232BF4
:10347000F1F0711004C0511002C06620C1F0F701D4
:10348000848595859787868781818F708093E900F1
:103490008B8181111DC069817A8140E050E0C501B6
:1034A0000E9494118091E8008E778093E8008091CB
:1034B000E4009091E500F701938782870FB6F894B6
:1034C0009EBE0FBE8DBE60CF612CB9CF512CC7CF31
:1034D0008093F100E0CF512CC8CFCF93DF9382309F
:1034E000910510F482E090E0E0915D02F0915E02BF
:1034F00020E030E0A0E0B0E0309739F14081518128
:1035000048175907B8F04817590771F48281938119
:10351000109729F013969C938E9312972CC090933A
:103520005E0280935D0227C02115310531F04217FC
:10353000530718F0A901DB0101C0EF019A01BD0199
:10354000DF010280F381E02DD7CF21153105F9F09D
:10355000281B390B2430310580F48A819B81611549
:10356000710521F0FB019383828304C090935E0276
:1035700080935D02FE01329644C0FE01E20FF31F0C
:103580008193919322503109398328833AC0209145
:103590005B0230915C02232B41F420912E0130918B
:1035A0002F0130935C0220935B0220912C0130911B
:1035B0002D012115310541F42DB73EB74091300161
:1035C00050913101241B350BE0915B02F0915C02BC
:1035D000E217F307A0F42E1B3F0B2817390778F0EA
:1035E000AC014E5F5F4F2417350748F04E0F5F1F49
:1035F00050935C0240935B028193919302C0E0E0A0
:10360000F0E0CF01DF91CF910895CF93DF93009742
:1036100009F487C0FC01329713821282C0915D02C7
:10362000D0915E02209781F420813181280F391FCB
:1036300080915B0290915C028217930779F5F09379
:103640005C02E0935B026DC0DE0120E030E0AE176B
:10365000BF0750F412964D915C9113979D0141154F
:10366000510509F1DA01F3CFB383A283408151817F
:10367000840F951F8A179B0771F48D919C91119768
:10368000840F951F02969183808312968D919C9151
:103690001397938382832115310529F4F0935E02F9
:1036A000E0935D023EC0D9011396FC93EE9312970E
:1036B0004D915D91A40FB51FEA17FB0779F4808146
:1036C0009181840F951F0296D90111969C938E9338
:1036D0008281938113969C938E931297E0E0F0E0A1
:1036E0008A819B81009719F0FE01EC01F9CFCE0190
:1036F000029628813981820F931F20915B023091BD
:103700005C022817390769F4309729F410925E0299
:1037100010925D0202C013821282D0935C02C093A9
:103720005B02DF91CF91089581E090E0F8940FC3A0
:10373000FB01DC0104C08D910190801921F44150FE
:103740005040C8F7881B990B0895FB01DC0102C0AB
:1037500001900D9241505040D8F70895DC0101C00E
:103760006D9341505040E0F70895EF92FF920F9310
:103770001F93CF93DF938B01DB0113962C9121FFD5
:1037800016C0EC01E12CF12C8991882371F0D8014D
:103790001896ED91FC911997B8010995892BA1F321
:1037A000EE24EA94FF24FA94EFCFC70102C08FEF12
:1037B0009FEFCDB7DEB7E6E0BBC2AEE0B0E0E2EE31
:1037C000FBE19CC20D891E8986E08C831A830983E4
:1037D0008FEF9FE79E838D83AE01475E5F4F6F89BA
:1037E000788DCE01019608D0EF81F885E00FF11FAA
:1037F00010822E96E4E09EC2ACE0B0E0E1E0FCE195
:103800006FC27C016B018A01FC01178216828381E1
:1038100081FFB0C1CE0101964C01F7019381F60101
:1038200093FD859193FF81916F01882309F49EC1D7
:10383000853239F493FD859193FF81916F01853233
:1038400021F4B70190E0B1D1E8CF512C312C20E028
:103850002032A0F48B3269F030F4803259F0833298
:1038600069F420612CC08D3239F0803339F4216045
:1038700026C02260246023C0286021C027FD27C005
:1038800030ED380F3A3078F426FF06C0852D6AE017
:103890001ED2582E530E13C0832D6AE018D2382E34
:1038A000330E20620CC08E3221F426FD5FC12064ED
:1038B00006C08C3611F4206802C0883641F4F60147
:1038C00093FD859193FF81916F018111C1CF982F55
:1038D0009F7D9554933028F40C5F1F4FFFE3F983CD
:1038E0000DC0833631F0833771F0833509F057C04E
:1038F00021C0F801808189830E5F1F4F44244394C7
:10390000512C540114C03801F2E06F0E711CF80103
:10391000A080B18026FF03C0652D70E002C06FEF6C
:103920007FEFC5012C8736D12C0183012C852F77A1
:10393000222E16C03801F2E06F0E711CF801A08033
:10394000B18026FF03C0652D70E002C06FEF7FEFEE
:10395000C5012C8714D12C012C852068222E8301CF
:1039600023FC19C0832D90E048165906A0F4B70136
:1039700080E290E01AD13A94F5CFF50127FC8591C9
:1039800027FE81915F01B70190E00FD131103A9489
:10399000F1E04F1A51084114510479F7DEC0843622
:1039A00011F0893631F5F80127FF07C06081718178
:1039B000828193810C5F1F4F08C0608171818827CD
:1039C00077FD8095982F0E5F1F4F2F76B22E97FFB1
:1039D00009C090958095709561957F4F8F4F9F4F4F
:1039E0002068B22E2AE030E0A40111D1A82EA81838
:1039F00043C0853729F42F7EB22E2AE030E025C05F
:103A0000F22FF97FBF2E8F36C1F018F4883579F088
:103A1000ADC0803719F0883721F0A8C02F2F206162
:103A2000B22EB4FE0DC08B2D8460B82E09C024FFC9
:103A30000AC09F2F9660B92E06C028E030E005C06E
:103A400020E130E002C020E132E0F801B7FE07C01B
:103A500060817181828193810C5F1F4F06C06081FC
:103A6000718180E090E00E5F1F4FA401D0D0A82E9E
:103A7000A818FB2DFF77BF2EB6FE0BC02B2D2E7F77
:103A8000A51450F4B4FE0AC0B2FC08C02B2D2E7E43
:103A900005C07A2C2B2D03C07A2C01C0752C24FF75
:103AA0000DC0FE01EA0DF11D8081803311F4297EE5
:103AB00009C022FF06C07394739404C0822F8678D5
:103AC00009F0739423FD12C020FF06C05A2C731412
:103AD00018F4530C5718732C731460F4B70180E278
:103AE00090E02C8762D073942C85F6CF731410F479
:103AF000371801C0312C24FF11C0B70180E390E0DA
:103B00002C8753D02C8522FF16C021FF03C088E5E7
:103B100090E002C088E790E0B7010CC0822F867861
:103B200051F021FD02C080E201C08BE227FD8DE251
:103B3000B70190E03AD0A51430F4B70180E390E0EB
:103B400034D05A94F8CFAA94F401EA0DF11D808183
:103B5000B70190E02AD0A110F6CF332009F45DCE52
:103B6000B70180E290E021D03A94F7CFF701868147
:103B7000978102C08FEF9FEF2C96E2E1CDC0FC0150
:103B80000590615070400110D8F7809590958E0F88
:103B90009F1F0895FC016150704001900110D8F7FB
:103BA000809590958E0F9F1F08950F931F93CF932D
:103BB000DF93182F092FEB018B8181FD03C08FEF5D
:103BC0009FEF20C082FF10C04E815F812C813D811C
:103BD000421753077CF4E881F9819F012F5F3F4F23
:103BE00039832883108306C0E885F985812F0995DC
:103BF000892B29F72E813F812F5F3F4F3F832E83F3
:103C0000812F902FDF91CF911F910F910895FA018D
:103C1000AA27283061F1203191F1E8946F936E7FEB
:103C20006E5F7F4F8F4F9F4FAF4FB1E040D0B4E0FA
:103C30003ED0670F781F891F9A1FA11D680F791F3B
:103C40008A1F911DA11D6A0F711D811D911DA11D4E
:103C500022D009F468943F91062E000C3019000C14
:103C6000000C3019305D3193CEF6CF010895462F08
:103C70004770405D4193B3E00FD0C9F7F6CF462FB0
:103C80004F70405D4A3318F0495D31FD4052419319
:103C900002D0A9F7EACFB4E0A695979587957795D6
:103CA0006795BA95C9F700976105710508959B015D
:103CB000AC010A2E06945795479537952795BA95E6
:103CC000C9F7620F731F841F951FA01D089500245C
:103CD00080FD060E660F11F08695D1F7802D0895B0
:103CE0002F923F924F925F926F927F928F929F920C
:103CF000AF92BF92CF92DF92EF92FF920F931F93FA
:103D0000CF93DF93CDB7DEB7CA1BDB0B0FB6F894AA
:103D1000DEBF0FBECDBF09942A88398848885F84EA
:103D20006E847D848C849B84AA84B984C884DF805B
:103D3000EE80FD800C811B81AA81B981CE0FD11D3F
:103D40000FB6F894DEBF0FBECDBFED010895F89415
:023D5000FFCFA3
:103D5200010281080001004B020400000000000083
:103D6200000083100001000410000100820800011D
:103D720000000000000000000000000000005F02E0
:103D820020000102030425642E25642E25640D0AF9
:103D920000000000009904D6048702870287028788
:103DA20002870200000000D004DC049F04E204F455
:103DB20004EB04CD04000000008C059C05870287FB
:103DC20002870287028702870287028702000000B9
:103DD200009205A205AA052A07F60598059A059AF2
:103DE20006D806480600000000560777078702003B
:103DF2000000005C077D078507000000000108271E
:103E0200088702870207080A080D08100813081914
:103E1200080000000021082D081F08C90807080A29
:103E2200080D081008130819080000000055095B66
:103E32000953097C0A07080A080D08100813081913
:103E42000800000000630B690B610B5B0C07080A9A
:103E5200080D0810081308190800000000420D4858
:103E62000D400D771007080A080D081008130819ED
:103E72000800000000AA10B110A810B01007080A2C
:0A3E8200080D0810081308190800C5
:00000001FF
